:020000040800F2
:100000000040002001360008313400083534000873
:1000100000000000000000000000000000000000E0
:1000200000000000000000000000000035C70008CC
:10003000000000000000000011C8000855C80008BA
:10004000513600080000000039340008513600081D
:100050004934000851360008513600084D34000874
:1000600000000000513600085136000851360008E3
:10007000CD34000851360008513600080000000059
:1000800051360008DD340008F1340008513600080C
:1000900051360008513600080535000815350008AE
:1000A0005136000851360008513600085136000814
:1000B00035350008513600080000000051360008B0
:1000C00010B5064C2378002B07D1054B002B02D02E
:1000D000044800E000BF0123237010BDE8010020A8
:1000E0000000000030140108044B10B5002B03D0B1
:1000F0000349044800E000BF10BDC04600000000F6
:10010000EC010020301401080023C25C0133002AF6
:10011000FBD1581E7047000002B4714649084900DF
:10012000095C49008E4402BC7047C04603B4714666
:10013000490840004900095E49008E4403BC7047ED
:10014000002243088B4274D303098B425FD3030A16
:100150008B4244D3030B8B4228D3030C8B420DD329
:10016000FF22090212BA030C8B4202D312120902B7
:1001700065D0030B8B4219D300E0090AC30B8B42F5
:1001800001D3CB03C01A5241830B8B4201D38B03A3
:10019000C01A5241430B8B4201D34B03C01A524148
:1001A000030B8B4201D30B03C01A5241C30A8B428B
:1001B00001D3CB02C01A5241830A8B4201D38B0276
:1001C000C01A5241430A8B4201D34B02C01A52411A
:1001D000030A8B4201D30B02C01A5241CDD2C3098C
:1001E0008B4201D3CB01C01A524183098B4201D308
:1001F0008B01C01A524143098B4201D34B01C01AF3
:10020000524103098B4201D30B01C01A5241C3086A
:100210008B4201D3CB00C01A524183088B4201D3D9
:100220008B00C01A524143088B4201D34B00C01AC5
:100230005241411A00D20146524110467047FFE731
:1002400001B5002000F0F0F802BDC0460029F7D04B
:1002500076E7704703460B437FD4002243088B4266
:1002600074D303098B425FD3030A8B4244D3030B3D
:100270008B4228D3030C8B420DD3FF22090212BA02
:10028000030C8B4202D31212090265D0030B8B427E
:1002900019D300E0090AC30B8B4201D3CB03C01A68
:1002A0005241830B8B4201D38B03C01A5241430B43
:1002B0008B4201D34B03C01A5241030B8B4201D333
:1002C0000B03C01A5241C30A8B4201D3CB02C01A9E
:1002D0005241830A8B4201D38B02C01A5241430A16
:1002E0008B4201D34B02C01A5241030A8B4201D305
:1002F0000B02C01A5241CDD2C3098B4201D3CB01AC
:10030000C01A524183098B4201D38B01C01A52415A
:1003100043098B4201D34B01C01A524103098B425E
:1003200001D30B01C01A5241C3088B4201D3CB0049
:10033000C01A524183088B4201D38B00C01A52412C
:1003400043088B4201D34B00C01A5241411A00D2DC
:1003500001465241104670475DE0CA0F00D0494245
:10036000031000D34042534000229C4603098B42B5
:100370002DD3030A8B4212D3FC22890112BA030A3D
:100380008B420CD3890192118B4208D389019211BF
:100390008B4204D389013AD0921100E08909C30944
:1003A0008B4201D3CB01C01A524183098B4201D346
:1003B0008B01C01A524143098B4201D34B01C01A31
:1003C000524103098B4201D30B01C01A5241C308A9
:1003D0008B4201D3CB00C01A524183088B4201D318
:1003E0008B00C01A5241D9D243088B4201D34B0033
:1003F000C01A5241411A00D20146634652415B1075
:10040000104601D34042002B00D549427047634655
:100410005B1000D3404201B5002000F005F802BD9A
:100420000029F8D016E770477047C0468446100090
:1004300062468C461900634600E0C0461FB501F0D5
:10044000F7F8002801D40021C8421FBD10B501F003
:1004500047F84042013010BD10B501F0E9F800281E
:1004600001DB002010BD012010BDC04610B501F019
:10047000DFF8002801DD002010BD012010BDC046BE
:1004800010B501F06FF8002801DC002010BD01203C
:1004900010BDC04610B501F065F8002801DA002053
:1004A00010BD012010BDC046844608006146FFE72C
:1004B0001FB500F00FF9002801D40021C8421FBD6C
:1004C00010B500F09BF84042013010BD10B500F0AF
:1004D00001F9002801DB002010BD012010BDC0463D
:1004E00010B500F0F7F8002801DD002010BD012054
:1004F00010BDC04610B500F0A7F8002801DC0020B0
:1005000010BD012010BDC04610B500F09DF80028B8
:1005100001DA002010BD012010BDC04670B50022D8
:100520000C4B04000D00FFF7B5FF002804D120009C
:10053000290001F0FDFE70BD064B002220002900BD
:1005400001F046FB01F0F4FE80231B069C4660444C
:10055000F1E7C0460000E04170B505000C00002244
:10056000002328002100FFF777FF002808D128008A
:10057000210000F00FF802000B001000190070BD00
:1005800080231B06E118280000F004F800234242F3
:100590008B41F2E770B500220B4B0D00040001F017
:1005A000ABF8FFF7BBFF060001F028FF0022074B66
:1005B00001F0A2F802000B002000290001F008FB66
:1005C000FFF7ACFF310070BD0000F03D0000F041CE
:1005D00070B50600080001F0E1FE0022064B01F0B4
:1005E0008BF80D000400300001F008FF2B00220002
:1005F00000F044F970BDC0460000F04170B5420003
:1006000045024E024C00C30F6D0A0120120E760AFD
:10061000240EC90FFF2A06D0FF2C03D0A24201D11D
:10062000B54206D070BD002DFCD1FF2CFAD1002EB2
:10063000F8D18B4206D00120002AF3D12800431EB6
:100640009841EFE70020EDE770B5420045024E0209
:100650004C00C30F6D0A120E760A240EC80FFF2A33
:100660001BD0FF2C0ED0002A1BD1002C01D1002E54
:100670001CD0002D0CD083421CD00221581E0840F3
:10068000013870BD002E22D1002AF4D1002DF2D104
:100690000028F6D101204042F3E7002D17D1FF2CAE
:1006A000F0D0002CE7D1002EE5D1E6E70020002DA8
:1006B000E7D0E2E7A24205DCEADBB54202D8E7D3A5
:1006C0000020DEE74342584140000138D9E70220CC
:1006D0004042D6E770B5420045024E024C00C30FBF
:1006E0006D0A120E760A240EC80FFF2A0BD0FF2CBB
:1006F0000DD0002A1FD1002C16D1002E14D10020BD
:10070000002D10D009E0002D0CD1FF2C13D1002EAC
:1007100008D1002A08D0834212D00221581E084076
:10072000013800E0022070BD002DF4D10028FAD17C
:1007300001204042F7E7002CEDD1002EEBD1ECE791
:10074000A24205DCF2DBB54202D8EFD30020EAE793
:100750004342584140000138E5E7C046F8B500285B
:1007600013D0C317C6185E40C40F300001F03CFF21
:100770009E2305001B1A962B0FDC082801DD083D7F
:10078000AE407602760AD8B202E0002400200026AD
:10079000C0053043E4072043F8BD992B0CDD05224A
:1007A0003100121AD1400A00010030001B3188408C
:1007B000411E884102431600052D12DC31000D4F09
:1007C0003940720709D00F203040042805D0043189
:1007D0004A0102D59F2339405B1B89014E0AD8B2DA
:1007E000D6E76A1F96403100024F39407207F4D0B5
:1007F000E9E7C046FFFFFFFB70B5051E0ED001F014
:10080000F3FE9E2304001B1A962B0CDC082801DD46
:10081000083CA5406D026D0AD8B201E00020002519
:10082000C005284370BD992B09DD020029001B3249
:1008300091404A1E91410522121AD5400D43052CC4
:1008400012DC29000C4E31406A0709D00F202840E5
:10085000042805D004314A0102D59F2331401B1BD7
:1008600089014D0AD8B2DBE7621F95402900024E8C
:1008700031406A07F4D0E9E7FFFFFFFBF0B54F46D0
:100880004646D6460D000400C0B51F0011002803DF
:10089000620F400A10437A00520DE3003C03914678
:1008A000640AFA0F4F0F6E0027439246B846760D42
:1008B000ED0FC900954200D199E04C46341BA44687
:1008C000002C00DC7CE04A46002A00D1B8E0C54A92
:1008D000964200D11CE180223C0012041443A04641
:1008E0006246382A00DD61E11F2A00DDCCE1644662
:1008F0002022121B444694400F00A14664469140BA
:10090000E7404C464A1E91413C43424621436446DF
:10091000E240801A5C1AA3429B415F42C71B3B0224
:1009200000D4D0E07F027F0A002F00D1FFE0380022
:1009300001F05AFE01000839202322005B1A8F4083
:10094000DA408C401743B14200DAFFE0891B4B1CB0
:100950001F2B00DDA8E020223900D21A200094408D
:100960009140D840621E9441DF40002601430C4371
:10097000630709D00F232340042B05D0231DA34276
:10098000A44164423F191C003B0200D49EE0954BF9
:1009900001369E4200D1B7E0934AE40817407B0736
:1009A00071057F0223433F0B4A0D12053A43ED07C1
:1009B0002A4318001100E0BCBA46B146A846F0BD73
:1009C000002C4BD04C46A41BA446002E00D023E1A3
:1009D00004001C4300D1AFE16246541E012A00D13D
:1009E00015E2804DAC4500D1C8E1A4461BE14A4662
:1009F000B21A9446002A00DCACE04A46002A43D0F2
:100A0000784A964200D1AFE180223C0012041443A0
:100A1000A0466246382A67DC1F2A00DC5FE14746B1
:100A2000203AD7406246202A05D064464022121B55
:100A30004446944021434A1E91410C003C4357E0F8
:100A40003A000A4300D105E12200013A012C00D10D
:100A500082E1644CA4455BD0944641E7634C771C2B
:100A6000274200D0C4E004001C43002E00D069E1FE
:100A7000002C00D1BFE144460C4300D0D0E1420736
:100A8000DB081343C00829E03A000A4300D170E1B3
:100A900062466446013A012C00D1E0E0514CA44585
:100AA00000D161E19446B4E73A001F39CA40110011
:100AB000202B03D04022D31A9F403C43631E9C410D
:100AC000002700260C43630700D053E7B446E40830
:100AD0007B072343F808434A94451DD06246070329
:100AE00052053F0B520D60E744460C43621E944191
:100AF000E4189C429B415F423F183B02E3D5394BCF
:100B000001369E4200D0B5E03200002700234CE7BA
:100B10004207DB081343C0081A00024300D1E1E199
:100B200080273F0307433F032E4A3F0B3DE720004A
:100B300001F05AFD010018311F2900DCFCE60838DD
:100B4000844027000024B14200DBFFE6264A761AE3
:100B500017400DE7002A2FD04A46921B9446002EDC
:100B600000D1ADE01F4A914500D10FE1802212046F
:100B700010436246382A00DD0FE11F2A00DD80E1C4
:100B8000644620221E00121B6746040093409440D6
:100B9000FE405A1E9341F84034431C43804464187D
:100BA0008C42BF417F424E464744A6E742460A4335
:100BB00011004A1E9141ADE60C4C721C224200D03D
:100BC000A1E002001A43002E00D0FAE0002A00D172
:100BD00045E13A000A4300D046E14207DB081343EF
:100BE000C0087BE7FF070000FFFF7FFFFE07000054
:100BF00047465C1AC21BA342BF417F42B946170059
:100C00004A46BF1A3A0200D58DE023003B4300D08C
:100C10008AE60020002561E7B44CA14500D1ADE093
:100C20008024240420436446382C3DDC62461F2C7B
:100C300000DDB7E020251E002D1B0400AB40AC40BA
:100C4000D640D04042465D1EAB413443121A904616
:100C500023432CE04207DB081343C0083BE75C1842
:100C60009C429B4140445B42C71801263B0200D492
:100C700029E702269E4A63081740012214401C43BC
:100C8000FB071C437F0873E64446203AD440624683
:100C9000202A05D067464022D21B47469740394359
:100CA0004A1E9141214335E60343581E8341CC1A25
:100CB000A142BF4143467F4255464E46DF1B2EE6CA
:100CC00002001A4300D1BDE062466446013A012C9D
:100CD00000D1E5E0854CA44558D0944649E76446E8
:100CE0002022121B444694400F00A14664469140C6
:100CF000E7404C464A1E91413C4342460C43614604
:100D0000CA408018F4E6794CA24200D1FDE6591899
:100D100099429B4140445F42C719FC0749081600AD
:100D20000C437F08CFE6CC1AA142BF4143467F4225
:100D3000181A5546C71BF7E5C9087B0755460B43EC
:100D4000F808C8E6002C00D081E043460B4315D1DB
:100D5000802000250003E3E65C1AA3429B41C71BE9
:100D60005B420126FF1ADAE54207DB081343C0089D
:100D7000D2E64207DB081343C008ACE643464246CE
:100D8000C9085B0755460B43D008C5E643464246B3
:100D90005B07C9080B43D008BEE603431C00631E73
:100DA0009C41FCE60200203CE24014006246202AFE
:100DB00003D04025AD1AA8400343581E8341234366
:100DC00075E7002AE2D03A000A43CDD04207DB089B
:100DD00013438022C0081203104206D0FC081442BC
:100DE00003D12000CB087A0713435A0FDB005207C8
:100DF000DB08134390E643460B4300D109E7434623
:100E00004246C9085B0755460B43D00866E6CC1A34
:100E1000A14289413F1A4942554601267F1A7EE583
:100E200042465C1A871AA34292415242BF1A3A02C2
:100E30003DD5CC1AA1428941434649421F1A554625
:100E40007F1A95E57B07C9080B43F80843E644463B
:100E5000DB080C4330D142071343C0085CE67B0734
:100E6000C9080B43F80839E65C189C429B41404492
:100E70005B42C7183B0200D425E61D4B01261F40EC
:100E800021E60400203AD4406246202A04D04022C1
:100E90006646921B904003435A1E93411C437EE6D4
:100EA0005C188C428941404449424718DDE62300E2
:100EB0003B4300D1ADE606E6440723438024C00847
:100EC0002403204208D04246D608264204D1554683
:100ED0003000CB0851070B435A0FDB00DB085207E9
:100EE000134319E60023014A1F005EE5FF070000D7
:100EF000FFFF7FFFF0B557464E464546DE46E0B55C
:100F0000814605000C03480092461F0085B0240B63
:100F1000400DCE0F002800D156E1D44B984200D1AD
:100F200072E16B0FE4001C4380231B0423439846AB
:100F3000CF4BED009B4600239946834400933C032E
:100F40007B005046240B5B0DFF0F002B00D11FE1EF
:100F5000C64A934200D162E1C549420F8C46E40083
:100F600059461443802263441204CB1A14439B460F
:100F7000C200002033007B409A464B460F2B27D8F7
:100F8000BC499B00CB589F46B246009B022B16D013
:100F9000032B00D18EE2012B00D0D9E000230024E6
:100FA000002552461B052343D2071343280019008E
:100FB00005B0F0BCBB46B246A946A046F0BD002431
:100FC0000025AA4BEDE7BA46A04615000090DCE7E5
:100FD000444500D2C7E100D1C2E101235B429C46F7
:100FE0002E0040460025E3442302140E1C431B0C34
:100FF000994623041F0C1202494600920197FFF7FD
:1010000025F902007A430B04310C804619438A42C9
:1010100007D901235B429C460919E0448C4200D861
:1010200007E2881A4946FFF711F909048C46310492
:101030006646019A090C4243030031438A4204D9AF
:101040000919013B8C4200D8EDE1881A424612048E
:101050001A4390464146009B0E041B0C1F0002934E
:10106000009B360C1B04190C0B007343120C7E43BF
:10107000039151437A431F0CBC4676186644B14233
:1010800003D9802149028C466244310C8A1831040C
:101090001E04360C8E19904202D312D1B54210D2E2
:1010A0004346591E009B9C4665441F009D429B4140
:1010B0005B421B19C018844200D2A0E100D19BE121
:1010C0008846AE1BB542AD41801A6D42401B84423A
:1010D00000D1D5E14946FFF7B9F8019A0B04424324
:1010E000310C050019438A4200D96CE1881A49463F
:1010F000FFF7ACF8019A360442430904360C0300AA
:101100000E43B24200D953E10398B61A02002D04EF
:101110001D43029F2B041B0C5A437B439C46290C06
:101120004843130C844463447943984203D9802094
:10113000400284466144180C12041B04120C41182E
:101140009B188E4200D2FFE000D1FAE001231D433C
:10115000494A5A44002A00DCAAE06B0700D03DE16E
:10116000ED084346DB0106D54246444B1A40904603
:101170008022D2005A44424B9A4200DD1FE7434688
:101180005B071D43434652055C02240B530D08E7E1
:101190005246224300D17BE0002C00D1FAE020002F
:1011A00001F022FA02000B3A1D2301009B1A52465D
:1011B0000839DA408C40144352468A40314B584437
:1011C0009B4683440020D5E64B462343984644D0B3
:1011D000002C00D1CEE0200001F006FA0100020050
:1011E0000B391D235B1A49461000D940083884404A
:1011F0000B004D462343984685402348831A9B465F
:101200000023994600939AE64B46234398461DD106
:1012100008239946063B0025834600938FE65246F5
:10122000224309D1022349461943184B89469C465B
:1012300000240220E3449DE603234A461A43134B4D
:1012400091469C4652460320E34493E60C2399467C
:10125000093BA0468346009371E604239946002388
:101260009B4601330025009369E6C046FF07000056
:1012700001FCFFFF14150108FF030000FFFFFFFE44
:10128000FE070000F30300000DFCFFFF01F8FFFF65
:101290004946012319438946002401206AE60023B8
:1012A00080249A4600258A4B24037AE601256D4264
:1012B00001239B1A382B00DD70E61F2B00DCBFE0FA
:1012C0001F2149428A1A4146D1400A00202B04D0EE
:1012D0004146804B5B4499400D436B1E9D41072363
:1012E0002A431D0000241540134200D1D4E00F21F1
:1012F00000231140042900D1CBE0111D91429241FD
:1013000052429B180A00190200D4C2E001230024B3
:10131000002546E6802341461B03194208D01C42A3
:1013200006D11C432403BA461500694B240B38E64A
:101330008024434624031C432403B246644B240BFD
:101340002FE6002B00D103E7A619681EA64200D2A3
:101350008DE08E4200D2A3E000D1B3E00500F5E6B7
:10136000AA4200D939E64346DE0758086B081E43F7
:10137000ED0739E6484601F037F901000200153162
:1013800020321C2900DC2CE74B460838834000251E
:10139000984632E701F028F903001A001532203090
:1013A0001C2A00DC00E75446083B00229C4005E76D
:1013B0003619013BB44200D9A6E6B24200D8A3E6F2
:1013C000831E3619A0E60919013D8C4200D98DE62D
:1013D0008A4200D88AE6851E091987E60F232B402A
:1013E000042B00D1BCE605235B42AB429B41043594
:1013F0005B42ED089844B4E6AF4200D960E6824211
:1014000004D800D05CE6AE4200D859E602235B4225
:101410009C46009BE0449C4665449D429B415B4248
:101420001B19C0184DE68A4200D80EE6831E091922
:101430000BE68A4200D8F4E5831E98460919F0E5C8
:101440002549280059448D4042468A40691E8D41F5
:101450004146D840D94002432A430B00510700D1EE
:1014600051E70F211140042900D046E74BE7050062
:101470008E4200D06AE6009A934200D066E667E6A4
:10148000164A5A44002A00DC10E70123002598443C
:1014900067E65D075B021C0BD2080023154380E55D
:1014A0000098023D42008242BF417F423C193619FA
:1014B0000092DDE78024434624031C432403044BAD
:1014C000240B6EE5009A9A42EAD30500D3E7C046A2
:1014D000FF0700003E0400001E040000FF030000A0
:1014E000F0B54E464546DE4657469046E0B51700F5
:1014F0001A03120B0500844619480E034C0091464E
:101500005A00DB0F9B46360B640DC90F520D844207
:1015100019D0824210D0012094420ED14E450CD1F8
:101520000120C44509D1594517D0002C05D1300000
:101530002843431E984100E00120F0BCBB46B24660
:10154000A946A046F0BD330001202B43F5D1A242AD
:10155000F3D14B463B43F0D1E2E70020EDE7C04634
:10156000FF070000F0B54746CE46040018001600FD
:101570001B031B0B2D4D4A00994680B543000F03FA
:10158000A446B0463F0B520DC90F5B0DC00FAA42D7
:1015900021D0AB4213D0002A22D13C43002B02D1F0
:1015A0004D462E4322D0002C10D0814222D0022062
:1015B000013908400138C0BCB946B046F0BD4D46BF
:1015C0002E4329D1002AF0D13C43EED10028F2D19C
:1015D00001204042EFE73D0025431DD19342EED06C
:1015E000002BE2D14C462643DFD1E0E70020002C5F
:1015F000E1D0DCE79A420ADCE8DB4F45D7D80ED0D1
:1016000000204F45D7D20029E2D00800D3E743425B
:10161000584140000138CEE702204042CBE7C445A4
:10162000C5D80020C445C6D2EDE7C046FF0700007C
:10163000F0B54746CE460400180016001B031B0BEE
:101640002C4D4A00994680B543000F03A446B0468E
:101650003F0B520DC90F5B0DC00FAA420DD0AB421C
:1016600010D0002A27D13C43002B11D14D462E43E8
:101670000ED10020002C15D00EE03D00254310D1E6
:10168000934218D14D462E430BD1002A02D13C4340
:10169000002C0BD0814214D00220013908400138BF
:1016A00000E00220C0BCB946B046F0BD0028F9D128
:1016B00001204042F6E7002BECD14C462643E9D10D
:1016C000EAE79A4204DD4342584140000138E9E725
:1016D0009A42EBDB4F45DFD806D000204F45E1D2E0
:1016E0000029E5D00800DDE7C445D5D80020C44571
:1016F000D8D2F5E7FF070000F0B557464E464546FD
:10170000DE46E0B598460C034B000600924687B0D3
:10171000240B5B0DCF0F002B00D15CE1D94A934223
:1017200000D175E1420FE4001443802212041443F7
:10173000D54AC500944663440093002399469B46CE
:10174000434642461E03D20F5B0050469046360B7E
:101750005B0D00D120E1CB4A934200D162E1CA493E
:10176000420F8C4600996344F6008C461643802253
:101770009C44120463461643C20000200093009963
:10178000434601318C4649467B4001930F2926D8B8
:10179000BE4B890059588F464346019334001500CB
:1017A00083465B46022B16D0032B00D103E2012BAC
:1017B00000D0CDE0002200240025019B1205224329
:1017C000DB071A432800110007B0F0BCBB46B24645
:1017D000A946A046F0BD00240025AA4AEDE7280C42
:1017E0002D042D0C2B00110C1204120C534398469F
:1017F00013002F00434399464F434F44BB4647468F
:101800000B003F0CBA464343DA440293D14504D956
:1018100080277F02B9464B44029353461B0C9B46DC
:1018200053461F0443461B041B0C98463B0043448D
:101830000493330C3604360C9846330043439946E0
:10184000434643432F009A46434677435D43380C53
:101850004D444519A94503D980235B029946CA44E2
:101860003F04280C3F0C2D04ED19270C2404240CF4
:101870000300200050437A4391463A0053440593B5
:10188000030C9A464A43614349445144AB44894559
:1018900003D980235B0299464A4400040B0C000CD8
:1018A0000904091820009946434670435C437E436F
:1018B0005F43030C9846A41944444A440397A64244
:1018C00004D980235B029846474403972304029E71
:1018D0009A46059B5E449846AE42AD4176188E42CC
:1018E00089410004000C504440446D424719B846F9
:1018F000934649428946C344D94498428041A84509
:10190000AD4193459241894589416D42404228430A
:10191000240C524249420A43039B00198018C718FD
:101920004B46DC0D049B75021D436A1E95414B46D8
:10193000F60D7F0235435A023C431543FB0100D4A8
:101940001CE101216A080D401543E20715436408B4
:101950004F496144002900DCB0E06B0709D00F2239
:101960002A40042A05D02A1DAA42AD416D426419BD
:101970001500E30104D58021464AC90014406144A2
:10198000454A914200DD26E76207ED0864024905F9
:101990001543240B4A0D10E75246324300D17FE035
:1019A000002E00D1DCE0300000F01EFE02000B3AF9
:1019B0001D2301009B1A52460839DA408E40164317
:1019C00052468A40009B3549181A03008C466344EE
:1019D00000200093D3E6250005434AD0002C00D117
:1019E000B0E0200000F000FE010002000B391D23D2
:1019F00010005B1A3100350008388440D94085401A
:101A00000C432648831A0093002399469B4697E689
:101A10000500254326D10822009302230024914685
:101A20009B468DE65246009B324310D11549002655
:101A30008C46634449460093022319438946022099
:101A40009DE65B460197022B00D0ADE6C3E60D4A4A
:101A50000320944663444A46009303231A43914665
:101A600052468CE60C2200930323050091469B46C8
:101A700066E60423994600230093013300249B4625
:101A80005EE6C046FF07000001FCFFFF5415010899
:101A9000FF030000FFFFFFFEFE0700000DFCFFFF3D
:101AA00049460123194389460026012067E60023A1
:101AB00080240025434A019324037EE60120401A36
:101AC000382800DD76E61F285BDD1F222300524206
:101AD000511ACB401900202803D03B4A624494405D
:101AE00025436A1E95412A000A4307210D00002460
:101AF000154011425BD00F2100241140042953D01E
:101B0000111D914292415242A4180A0023024BD562
:101B100001220024002550E680231B031C4209D02B
:101B20001E4207D133431C0343461500240B254AAC
:101B3000019342E68022120314432403214A240B1A
:101B400001973AE600F050FD010002001531203205
:101B50001C2900DC4BE7340008380025844050E79E
:101B600000F042FD03001A00153220301C2A00DC70
:101B70001EE75646083B00229E4023E7009B9C46FA
:101B8000E6E61249220061442E008D408A40C6409C
:101B9000691E8D4132432A43C4405307B6D00F21FA
:101BA00011400429ACD1B1E765076402240BD208C7
:101BB0001543002201E68022120314432403014A44
:101BC000240BFAE5FF0700003E0400001E0400009D
:101BD000F8B557464E464546DE46E0B51E001700AE
:101BE0004A000B03520D5B0A9046420F1A43CD0F79
:101BF000CD4C3103C300944670007A0F490AFF00B0
:101C00009A46B946400DF60F1143A04200D1B1E00B
:101C100001225640B346B54200D188E04246121A2E
:101C2000002A00DCAEE0002800D1C1E0BE488045BB
:101C300000D151E1802000040143382A00DD7BE11E
:101C40001F2A00DDEEE120203E00801A0C00D64065
:101C5000D140874062468440521A781E874194469C
:101C600034432743DC1BA3429B4162465B42D31AA9
:101C700099464B461B0200D418E14B465802430AD2
:101C800099464B46002B00D137E1484600F0ACFCAA
:101C9000010008392023220048465B1ADA408840B8
:101CA0008C4043461043884500DD36E1C91A4B1C81
:101CB0001F2B00DDEAE020222600D21A010094400A
:101CC000DE40D84000239140621E944181469846F0
:101CD00031430C43630709D00F232340042B05D065
:101CE000231DA342A4416442A1441C004B461B0295
:101CF00000D4DEE041468C4B0131994200D1E7E04F
:101D00004B468A48E4080340180049055B07400237
:101D100023434A0D040B1205ED0722432A43180002
:101D20001100F0BCBB46B246A946A046F8BD4246EB
:101D3000121A002A52DD002800D19CE0A04500D1F3
:101D4000CAE0802000040143382A00DD49E11F2A4F
:101D500000DC97E110000E002038C640202A04D095
:101D60004020821A91400F43B9464C46621E94416E
:101D700034433AE10A003A4328D0B346B5422BD067
:101D80006B4A4244002A5DD042464446821A002CE7
:101D900000D0F5E065461D4300D19CE1551E012AA7
:101DA00000D1FBE1604CA24200D1BDE12A00F0E08D
:101DB0000800384300D1C3E0501E012A00D1A8E139
:101DC000594CA24200D187E0020036E7012256407A
:101DD000B346B54200D021E7554A4244002A00D11B
:101DE000B5E042464446821A002C00D138E14E4EFE
:101DF000B04200D1DEE18026644636043443A44676
:101E0000382A00DD96E11F2A00DD24E22026B41ADC
:101E1000A24664465646B440A1461C004E46D440F5
:101E2000264334005646B3405E1EB3411C4363460E
:101E3000D340C918E419BC42BF417F42B94680462D
:101E40008944D8E040463B4C0130204200D0B4E009
:101E50004046002800D044E16046184300D190E19C
:101E60000800384300D0AAE16146DB0849070B436C
:101E70006146CC0827E00800384361D0501E012A93
:101E800000D139E1A24227D002005DE702001F39EC
:101E9000CA401100202B03D04022D31A984004439B
:101EA000631E9C410023994698460C43630700D06B
:101EB00012E74B464A46E4085B072343D4084246F0
:101EC00019498A420ED024035205240B520D22E7F1
:101ED0000A00002400231EE7DB0862465207134372
:101EE0006246D4081A00224300D1FCE1802212038A
:101EF000144324030C4A240B0DE7200000F074FB6C
:101F0000010018311F2900DCC4E60838844043462C
:101F100020000024884500DCC8E6044A5B1A104013
:101F200098468146D6E6C046FF070000FFFF7FFFC8
:101F300001F8FFFFFE0700000F437A1E974191E66C
:101F40006146DB0849070B436146CC08B8E74046C9
:101F5000D34C0130204200D0A2E04046002800D0FF
:101F600001E16046184300D15EE10800384300D02B
:101F70005FE16146DB0849070B436146CC08A2E7F5
:101F8000C84DA84200D1CFE0802564462D042C43E3
:101F9000A446382A56DC1F2A00DDD1E020251E0089
:101FA000AD1A6446AB40AC40D6405D1EAB413443F5
:101FB00023436446D440091B49E06046DC1B461AB3
:101FC000A34280414042814630004E46801B8146FC
:101FD000000276D44B46234300D052E6002400256D
:101FE00071E739430C00621E9441E4189C429B4106
:101FF0005B42634499464B461B0200D456E70123DB
:102000009C46A84BE044984538D04B46A648012250
:1020100003401800630814401C43C3071C434308D3
:10202000994657E610000E002038C640202A04D0FA
:102030004020821A91400F43B9464F467A1E97417D
:1020400037430FE662461A4313005A1E9341FC1AA7
:10205000A742BF417F42CB1B99465D46804608E6BA
:1020600066461E4300D1BEE0561E012A00D109E19A
:102070008C4CA24200D119E13200C1E64246002454
:10208000002348E620200C00801A3E008740844050
:10209000D640781E8741D14034433C438C44A4E76A
:1020A000804A904200D1E9E0DF199F429B416144A0
:1020B0005B42C918CC077F084B08994680463C43D1
:1020C000F4E6FC1AA742BF4163467F42C91ACB1B04
:1020D00099465D46D5E5FF084B075D463B43CC0876
:1020E000EEE662461A4300D082E00B003B431BD170
:1020F000802400252403F9E6DC199C429B416144BD
:1021000089465B4299444B461B0244D401239846BE
:10211000CCE6DC1B6246A3429B41511A5B42CB1AC0
:10212000994601239846A4E5FF084B075D463B43CB
:10213000CC08D7E662461A431400631E9C4179E638
:1021400015006446203DEC40A046202A05D04025DD
:102150006446AA1A944023439A465446631E9C41FF
:102160004346234373E762461A4323D00A003A43A7
:1021700000D0A0E06246DB08520713436246D40851
:10218000B0E60B003B4300D128E7FF084B075D4654
:102190003B43CC0897E60223984636E7FC1AA74251
:1021A000BF4163467F42C91ACB1B994601235D4656
:1021B00098465EE54B07FF083B43CC0892E6DC1BE4
:1021C0006046A342B641401A7642801B8146000217
:1021D00060D5FC1AA742BF4163467F42C91ACB1B98
:1021E00099465D4676E5FF084B073B43CC0867E61A
:1021F0000A00DB083A4300D16FE6624652071343F8
:102200006246D40880221203144207D0C808104244
:1022100004D15D460400FB0849070B435A0FDB005D
:10222000DB08520713435DE64B07FF083B43CC082E
:1022300049E6DC199C429B41614489465B429944D2
:102240004B461B0200D431E64A46174B1A40012385
:10225000914698462AE616006446203EF440A04681
:10226000202A05D040266446B21A944023439A4659
:102270005446631E9C4143461C43DBE50200002498
:10228000002348E5DC19BC42BF41614489467F42D6
:10229000B94438E74B46234300D19FE606E6C046E3
:1022A000FE070000FF070000FFFF7FFFFF084B074E
:1022B0003B43CC0816E66246DB08520713436246EE
:1022C000D40880221203144207D0C808104204D157
:1022D0005D460400FB0849070B435A0FDB00520719
:1022E000DB081343FEE50023014A1C0013E5C0464A
:1022F000FF07000070B505000C481C0316005B00CA
:102300000A034900120B490D240B5B0D814208D0D2
:10231000064A0020934203D120003043431E9841D7
:1023200070BD01202A43FBD1F2E7C046FF07000041
:102330000A0030B5134C530009030500090B0020B7
:102340005B0DD20FA34204DD0F48834202DD0F4B29
:10235000D01830BD8020400301430D48C01A1F280B
:1023600008DD0C48C31AD9400B005842002AF0D1AE
:102370001800EEE7084CC540A446634499400B00A2
:102380002B43F2E7FE0300001D040000FFFFFF7F68
:102390003304000013040000EDFBFFFF70B50028BC
:1023A00016D0C317C5185D40C40F280000F01CF9F3
:1023B000114A121A0A2816DC03002E0015339E401B
:1023C0000B23181AC54052052D032D0B530D03E0A6
:1023D00000240023002500261B052B43E40723438C
:1023E0003000190070BD0B38854052052D030026C2
:1023F0002D0B530DF0E7C0461E04000010B5041E5F
:1024000010D000F0F1F80F4B1B1A0A2811DC0B2238
:102410002100121AD14015300A035B058440120BCB
:102420005B0D01E0002300221B051343200019006F
:1024300010BD22000B3882405B0512030024120BF2
:102440005B0DF1E71E04000070B543004602C40FA7
:10245000FE201B0E591C750A08420CD0E022920087
:1024600094466D07360B63441B053343E40723434F
:102470002800190070BD002B14D1002D1BD028009E
:1024800000F0B2F80A281CDC0B232E001B1ADE40D9
:10249000030015339D400E4A3603121A5205360BBF
:1024A000530DE1E7002D09D08022360B1203094BB2
:1024B0006D071643D8E700230026D5E70026054B15
:1024C000D2E703000B3B9D402E000025E3E7C0460A
:1024D00089030000FF07000002004B00F0B55B0D10
:1024E0000C033D4E640A400F5F1CC90F0443D50026
:1024F00037420AD039481E18FE2E16DDFF20002470
:10250000C0052043C9070843F0BD002B06D12C436A
:1025100026D005229201540AD8B2F1E72543EDD026
:102520008020C0030443FF20EAE7002E1BDD920158
:10253000531E9A41E4006D0F22432A43530748D0AB
:102540000F231340042B00D004328023DB041340FC
:102550003FD0701CFE2ED1D09201540AC0B2CFE7FA
:1025600000200024CCE73200173222DB8020000458
:1025700020431E24A41B1F2C1DDD02225242961B49
:102580000200F2401600202C04D0154A9446634401
:10259000984005432A00531E9A41324300265307B0
:1025A000CED180241300E404012023402242D3D161
:1025B000B0E70023ADE70B4A94462A00E24014003E
:1025C0002A0063449A409840551EAA410243224380
:1025D000E4E733009EE7C046FE07000080FCFFFFF3
:1025E000A2FCFFFF82FCFFFF1C2101231B04984279
:1025F00001D3000C10391B0A984201D3000A083994
:102600001B09984201D30009043902A2105C40184A
:102610007047C046040302020101010100000000EE
:1026200000000000034B0360034B0B6080235B0042
:10263000136070470406002004020020F0B5DE4657
:1026400057464E46454601246423E0B5BB4E89B04B
:1026500033801A22002301213000009402F030F967
:10266000B74B00251C70B74BB74A99461C70012325
:102670009346B64A01359046B54AB64F9246EDB2FA
:10268000012B51D001F024FA5B461B78012B56D068
:10269000B14B1B78012B77D043461B68002B06D02B
:1026A0004246013B1360002B01D1AC4A1370AC4B86
:1026B0001B78012B00D18FE03B78012B29D1A94A4F
:1026C0006424137001F092F980210122C901A64807
:1026D00005F096FB01F088F901F086F901F084F924
:1026E00001F082F98021013C0022C9019E48E4B238
:1026F00005F086FB01F078F901F076F901F074F944
:1027000001F072F9002CDFD1964B3C701C70974B96
:102710001C70142009F07EFA062D56D04B461B780B
:102720000135EDB2012BADD100234A46137001F003
:1027300057F801F0CDF95B461B78012BA8D15B4619
:102740000024002203A98A481C7007F0C5FD00225E
:10275000874802A907F044FF6B461A7B854B1B781C
:102760009A4295D16B465A7B834B1B789A428FD104
:10277000824B824A1B780133DBB21370804A127895
:102780009A4285D87D4B1C700024734B29201C7005
:1027900000F0D4FF7B4B1B782A2B00D18BE07A4BC7
:1027A00033800023B3700124002300220021300075
:1027B000009402F085F864231A223380012100235B
:1027C0003000009402F07CF866E780216F488901B0
:1027D00005F032FB0025A1E70023614A5046137043
:1027E00004F0AAFEFA215046490004F00DFF00282B
:1027F0006BD00123664A5B421360504604F0D6FE5C
:10280000644B1C68644B201C1968FDF75FFE0028B0
:1028100033D0624B1B78002B2FD1614A12780A2AE1
:1028200063D85F4B01321A7002214F4805F0D6FA87
:102830005C4B1B7883423AD05B4B1B78C72B00D98B
:102840003AE7594A0133DBB21370142B00D033E757
:102850000221454805F0C2FA524B1870012862D097
:10286000524B002233800023B370013300930021C8
:102870000023300002F024F81EE74D4B201C19689D
:10288000FDF738FE0028CFD04A4B1A78002ACBD16A
:10289000494B1B780A2B37D8474A0133022132486B
:1028A000137005F09BFA3F4B1B788342C4D1002381
:1028B0003D4A137000E73348FDF726FC022800D894
:1028C0006DE76C23B47033806DE7504604F016FF5B
:1028D0002F4B1860FFF762FD384B394AFEF70CFFAB
:1028E000FFF7FAFD2B4B186087E701222B49B370E5
:1028F0000A70304930000B7032493180009200215B
:10290000002201F0DDFF8FE7244B2A491A700123D2
:102910000B702D49B27031803000009300210023EC
:1029200001F0CEFF80E70021284BB17033800A0010
:1029300000900B00300001F0C3FFBDE68C0B0020BF
:102940005B1600205D0C0020EC1200208C1600208D
:1029500018110020CA060020570C00208A160020FB
:10296000560C0020C9060020000400484016002034
:10297000B8110020E8130020E91300205C0C0020AF
:10298000EA130020F0130020723300000008004812
:10299000B80600205C17002058130020C106002054
:1029A000BF060020000000208A0B00200733000033
:1029B0005C130020C2060020C0060020F3C86F3F51
:1029C0000DAB782309330000083300000633000004
:1029D000F8B557464E464546DE460123E0B52B4E38
:1029E0002B4D33702B4B2C4F98462C4B2C4C9B462D
:1029F0002C4B9A460023994618E001332370337814
:102A0000012B2BD002F096FE01280CD1280006F0F5
:102A100083FC254B1B78012B27D05B464A4650464A
:102A20001A6004F033F9322009F0F4F8280006F0B7
:102A300073FC01224146380008F008FA2378272B5E
:102A4000DBD91A4B1B78002B16D103F023FB00288F
:102A500009D01E2323703378012BD3D14B4633701A
:102A600003F0DCF9CEE72070C9E7114B1B78012B8E
:102A7000D3D003F0D3F9D0E74A460C4B1A7002F0DA
:102A800007F90028E1D103F0C9F9DEE7550C002071
:102A9000A4110020E81B002068120020F012002082
:102AA000890B002024190020CC060020C806002035
:102AB000CB060020044B026810B59A4200D010BD2E
:102AC00004F0A6FAFBE7C0460044004000B597B00A
:102AD000302200210AA80AF025F9102200216846B8
:102AE0000AF020F91422002104A80AF01BF906F0CC
:102AF0001BFC1821204A0AA8136A0B4313621F22E9
:102B000001230A920B93012201230C920D931022B0
:102B100001230E920F9310921193802302225B02E5
:102B2000129213938022002352031492159306F0FD
:102B300005FC002801D072B6FEE7072202230092AE
:102B4000019300220023012168460292039306F0BC
:102B500013FF002801D072B6FEE78023074A0790D2
:102B60005B0004A80492059307F094F8002801D0B4
:102B700072B6FEE717B000BD001002402000010051
:102B8000F0B5CE46474680B597B00CAE04F066FA75
:102B9000FFF79CFF1422002130000AF0C3F88020C8
:102BA000BE4B000359690024014359615A6900254D
:102BB000024080200192019A5969C0030143596182
:102BC0005A690027024080200292029A59698002C5
:102BD0000143596180215A69C90202400392039A54
:102BE0005A69AF480A435A615B6900220B40802151
:102BF00004938901049B05F003F990200022A94960
:102C0000C00505F0FDF80022A749A84805F0F8F82E
:102C10008022012392013100A1480C920D930E9461
:102C20000F9504F06DFF902001239E4A3100C005EE
:102C30000C920D930E940F9504F062FF90200222E7
:102C400000233100C0050C920D93B76004F058FFCB
:102C5000F7229020032352013100C0050C920D93FE
:102C6000B76004F04DFF0222002331008F480C9220
:102C70000D93B76004F044FF03238D4A31008B4865
:102C80000C920D93B76004F03BFF0123864A31009C
:102C900086480C920D930E940F9504F031FF80221C
:102CA000882312025B03310080480C920D93B760B9
:102CB00004F026FF8022C42390209B0352003100A1
:102CC000C0050C920D93B76004F01AFF0C2200218E
:102CD00030000AF027F8774C774B01252360042356
:102CE0006361C223FF33E3619E3BFF3B2000A7618A
:102CF0006760A760E76025612762E754A56204F07A
:102D0000ADFA002801D072B6FEE7802308225B01ED
:102D10000C920D93072331002000B36004F09AFD5C
:102D2000002812D1654C664BA0602360654B206182
:102D30006061A061E061206220006360E56005F0F1
:102D40005DFA011E03D072B6FEE772B6FEE7200000
:102D500006F004FA011E01D072B6FEE7200006F06C
:102D60003DFA071E01D072B6FEE705AB0100142242
:102D70001800984609F0D6FF282239003000009745
:102D800009F0D0FF504C514B200023607F23A360FB
:102D900080336760E36027616761A76107F054F8DB
:102DA000021E01D072B6FEE7434641461880987075
:102DB000D8601861200007F00DF9021E01D072B62C
:102DC000FEE7434B69462000009307F0C5FA021E58
:102DD00001D072B6FEE73F4B30807361F0231B05D4
:102DE000B3612023B0707060F0603061F061310039
:102DF000F5542000E033736207F02CFC002801D06A
:102E000072B6FEE7344C354BA0602360E1235B02D1
:102E100063600C23E0602061A061E0612062606279
:102E20002000636108F020FE002801D072B6FEE7A2
:102E30002B482C4B0360062343602B4BC3608360FD
:102E400006F00CFA002801D072B6FEE7274D284B99
:102E5000A8602B6064236B60264BA8612800EB60A0
:102E600007F010FE8146002801D072B6FEE7280068
:102E700007F0DCFE204F214B38003B60FA23DB00DB
:102E80007B604B46BB60FA239B00FB604B46BB61FB
:102E900007F0F8FD051E33D072B6FEE700100240C1
:102EA000000800481180000018700000000400486D
:102EB000240F0000181100200024014058110020A8
:102EC000005400400E090020B811002000280040E6
:102ED00001010100808080806812002000440040D1
:102EE000A411002000300040FF0F0000D811002086
:102EF00000100040102700002012002000140040A5
:102F0000380007F093FE2A000321172004F05EFD2D
:102F1000172004F099FD2A000321022004F056FD39
:102F2000022004F091FD2A000321042004F04EFD4C
:102F3000042004F089FD2A0003210C2004F046FD42
:102F40000C2004F081FD2A000321112004F03EFD35
:102F5000112004F079FD2A000321122004F036FD2F
:102F6000122004F071FD2A000321072004F02EFD39
:102F7000072004F069FD2A0003211C2004F026FD2F
:102F80001C2004F061FD12490122200007F05EFFC1
:102F9000104C4346220083CA83C383CA83C312688A
:102FA00029001A60404608F0FFFD32000A4B1C342D
:102FB00018600BCC0BC20BCC0BC22368290013602A
:102FC000300008F0F1FD054B186008F0E7FDFEE762
:102FD000E81B00204814010814110020840B002075
:102FE0005C4A10B51368002B0AD0013B1360002B1C
:102FF00000D09EE0802100225748890104F000FFA4
:10300000564A1368002B0AD0013B1360002B00D0F6
:1030100088E0802100225048490104F0F1FE504A26
:103020001378002B0AD0013BDBB21370002B00D0C9
:1030300072E000220821484804F0E2FE494A137871
:10304000002B09D0013BDBB21370002B5ED10022B4
:103050001021414804F0D4FE80213F48090204F0C9
:10306000BDFE002849D1404A13780133DBB213700A
:10307000042B46D83D4A1378002B04D0013BDBB229
:103080001370002B5CD03A4A1378002B01D0013B1F
:103090001370384A13780133DBB213703B2B04D919
:1030A0000121354B197000231370344A13780A2B11
:1030B00011D90121324B197000231370314A136862
:1030C00001331360032B0FD02F4A1378002B01D04C
:1030D000013B137010BD0133DBB21370294A136832
:1030E00001331360032BEFD104220021274809F09C
:1030F00019FE0022264B1A70E6E700221A4B1A70BE
:10310000B8E70121234B10701970B3E70122102199
:10311000114804F075FE9FE7012208210E4804F0D3
:103120006FFE8BE7802101220B48490104F068FE05
:1031300075E7802101220848890104F061FE5FE7FC
:103140008021154A04481370C901002204F058FE7A
:1031500099E7C046580C002000040048C40600202F
:10316000BD060020540C0020880B002041160020D2
:10317000C4230020F4120020EC1200205E0C00207A
:10318000560C002084160020BC06002044160020A7
:1031900083160020CA06002040160020044B026857
:1031A00010B59A4200D010BD03F068FFFBE7C0469F
:1031B0000048014072B6FEE77047C04601220D4B41
:1031C00000B59969022011439961996983B00A4059
:1031D00080210092009ADA6949050A43DA61DB69C5
:1031E00000220B40019303214042019B04F0EEFBBF
:1031F00003B000BD0010024010B5040088B01422D6
:10320000002102A809F08EFD104B22689A4201D0DD
:1032100008B010BD80200E4B800099690143996170
:1032200080219A69C90202400092009A5A690948AD
:103230000A435A615B6901220B400193019B0323FE
:1032400002A90292039304F05BFCE1E70024014031
:10325000001002400004004810B5040088B0142299
:10326000002102A809F05EFD134B22689A4201D0AA
:1032700008B010BD8021114CC902626910480A4390
:1032800062616369C0220B400093009B122302928B
:1032900003930122032304920593012302A90693B9
:1032A00004F02EFC8021E26989030A43E261E369AC
:1032B0000B400193019BDBE70054004000100240EB
:1032C00000040048054B02689A4200D070478023F2
:1032D000034A1B02116A0B431362F7E70028004000
:1032E0000010024003680E4A82B093420ED00D4A8D
:1032F000934201D002B0704720230B4AD169194391
:10330000D161D26913400193019BF3E71023064A70
:10331000D1691943D161D26913400093009BE9E759
:1033200000100040001400400010024010B50400DE
:1033300088B01422002102A809F0F4FC124B226884
:103340009A4201D008B010BD8022104B9202D96978
:1033500090201143D961D969C005114000910099AD
:103360005969114359615B6902A91A400192019B95
:103370000C2202230292039303230593023B06933C
:1033800004F0BEFBDEE7C0460044004000100240EF
:1033900070B506008020204AC002916986B00143C2
:1033A0009161936969460340019302A8019B06F06D
:1033B0003FFC059B002B17D106F02AFC174C184B3D
:1033C00018492360184BE360FCF7BAFE002301386C
:1033D000606020002361A360A36107F053FB051E1A
:1033E00006D0280006B070BD06F012FC4000E5E7EC
:1033F000200007F01BFC051EF3D1162004F024FB6F
:10340000032E01D90125ECE700223100162004F03B
:10341000DDFA064B1E60E4E700100240FC120020BB
:103420000048014040420F00E70300000C0000206C
:10343000FEE7C046FEE7C04610B5024807F004FBB1
:1034400010BDC046B81100207047C0461A4B10B5D9
:103450005B69DB050ED48021174B09025B690B42C7
:1034600010D18020400004F0FDFC8020000204F018
:10347000F9FC10BD00F09AFF80210F4B09025B6937
:103480000B42EED00D4804F0A9FC0D4B04000128BE
:1034900002D000221A70E4E71B78012BE1D88021CA
:1034A00001220648C90104F0ABFC0A22054B1C703E
:1034B000054B1A70D5E7C0460004014000040048DF
:1034C000880B0020401600204116002010B502484D
:1034D00004F02EF910BDC0461811002010B500F000
:1034E00041FF024807F002FC10BDC046D811002081
:1034F00010B500F0DFFE024807F0F8FB10BDC04633
:103500002012002010B5024807F0F0FB10BDC046A5
:10351000FC120020064810B503689A69E023DB001E
:103520001A4202D005F0D2FD10BD05F0A3FAFBE768
:103530005811002010B5024807F028FD10BDC04604
:10354000681200200120704710B509F097FA162381
:1035500003600120404210BD10B509F08FFA162318
:103560000360FEE770B5161E07DD0C008D1800E045
:1035700000BF20700134AC42F9D1300070BDC046AC
:1035800070B5161E07DD0C008D182078013400E0A0
:1035900000BFAC42F9D1300070BDC04601204042AE
:1035A0007047C04680239B0100204B607047C04697
:1035B00001207047002070470C490D4A0300521A41
:1035C0000C4910B50868002804D0C318934206D8E7
:1035D0000B6010BD0848C31808609342F8D909F081
:1035E0004DFA0C23036001204042F2E70004000082
:1035F0000040002044130020F02C00207047C046FB
:103600000D4885460D480E490E4A002302E0D45865
:10361000C4500433C4188C42F9D30B4A0B4C00231A
:1036200001E013600432A242FBD3FFF7E7FF09F089
:103630002DFBFFF7A5FAFEE7004000200000002068
:10364000E8010020D8210108E8010020F02C00202A
:10365000FEE7000070B5050084B008000C00FCF720
:1036600053FD3D2801D9332D5BD0304E402221003F
:10367000300009F04EFB40222D4B2E4CAD011A605C
:10368000200005F067FD2028FAD196235B001A0080
:10369000A021200005F012F90328F6D0200005F043
:1036A00059FD2028FAD1FA239B0002934023ADB2A2
:1036B00001932A00A021200000963E3B04F06AFE00
:1036C00000282BD1200005F045FD2028FAD19623B3
:1036D0005B001A00A021200005F0F0F80328F6D0C6
:1036E000200005F037FD2028FAD1FA239B00029331
:1036F00040230193104B2A000093A02102232000B5
:1037000004F088FF002806D1200005F023FD2028C2
:10371000FAD104B070BDFFF74DFDF5E7FFF74AFDA4
:10372000D0E73D230022E2549FE7C046F01400207A
:10373000EC1300205811002070140020402230B5F6
:10374000214B224C85B085011A6096235B001A003C
:10375000A021200005F0B2F80328F6D0200005F0E3
:10376000F9FC2028FAD1FA239B0002934023AAB245
:10377000174D0193A021200000953E3B04F04AFF25
:1037800000281ED1200005F0E5FC2028FAD10023F6
:1037900002E00133402B04D0EA5CFF2AF9D1002279
:1037A000EA54290040220B4809F0B3FA0A4C40229F
:1037B0002900200009F0ADFA2000084B1C6005B07C
:1037C00030BDFFF7F7FCDDE7EC13002058110020B7
:1037D00070140020F01300206813002070150020E2
:1037E000212070B5FFF7AAFF6C4B421C9A1A022ADF
:1037F00000D8C5E0820700D0C2E002681A600279F2
:103800001A7142795A712220FFF798FF644B421CCB
:103810009A1A022A00D8A6E0820700D0A3E0026824
:103820001A6002791A7142795A712320FFF786FFD4
:103830005C4B421C9A1A022A00D887E0820700D00B
:1038400084E002681A6002791A7142795A715A202A
:10385000FFF774FF03785B20303B5A1E9341524AB6
:103860001370FFF76BFF51490AF0AEF8434258411D
:103870004F4B18701120FFF761FF09F0F8F89623FD
:10388000421E04001B019A425AD26421FCF7E2FC5A
:103890006421C5B22000FCF7D9FCC9B2454B102009
:1038A0001970454B1D70FFF749FF09F0E0F8431E02
:1038B0001E2B00D90120414B18702820FFF73EFF36
:1038C00009F0D5F83E4B18700A20FFF737FF3D4E40
:1038D00031000AF0C9FE040009F0C4F8FCF73EFF0D
:1038E000394D3100286020000AF0BEFE09F0BAF818
:1038F000FCF734FF3549041CFCF7E8FD002805D12E
:103900003349201CFCF7F6FD00281CD0314B324A0D
:103910001A602C683149201CFCF7D8FD002805D11D
:103920002B49201CFCF7E6FD002801D02C4B2B6016
:103930001A20FFF703FF01002A480AF017F870BDAC
:10394000FF21FF25AAE7234B1C60E2E702781A70EB
:1039500042785A7082789A70C278DA7002791A7155
:1039600042795A7173E702781A7042785A708278F5
:103970009A70C278DA7002791A7142795A7154E7F2
:1039800002781A7042785A7082789A70C278DA7027
:1039900002791A7142795A7135E7C04650130020F6
:1039A000601300204813002066130020C015010892
:1039B000CC060020E9130020E8130020EA130020C1
:1039C00064160020E0170108581300200000204171
:1039D000000070415C1300200000484100001041CD
:1039E00000002841C41900207047C04610B5B42219
:1039F00090B00021114809F095F940220021684655
:103A000009F090F90E4C200005F086FC69469620DE
:103A1000FFF720FE200005F07FFC69469720FFF7A6
:103A200019FE200005F078FC69469820FFF712FE89
:103A30000022044B1A7010B010BDC046841500203F
:103A4000A411002040160020F8B51E4D06002F00DE
:103A50002C00B43702E00434BC421CD031002000FA
:103A600009F0B2FF0028F6D001230324164D2B7075
:103A7000802101221548C90104F0C2F98021013CCE
:103A800000221248C901E4B204F0BAF9002CEFD1C7
:103A90002C702000F8BD00232A78002A08D16A780B
:103AA000002A05D1AA78002A02D1EA78002A06D095
:103AB0000133DBB204352D2BEED10024E9E70133CD
:103AC000DCB2E6E784150020C906002000040048A7
:103AD000F0B54E46DE4657464546E0B5CC4E93B06F
:103AE0003378012B0BD0CB4B1A78012A00D17AE026
:103AF00013B0F0BCBB46B246A946A046F0BDC64CCA
:103B0000C64D23682B60C64B98461B78012B7BD192
:103B1000C82008F07FF80A22C24B0F271A60002342
:103B20002360C14B6A781B781F40C04BBB46994647
:103B30001F702B789B18AA789B18EA789B18002B8B
:103B400069D00024BA4F02E004372D2C63D029003D
:103B5000380009F039FF0134E4B20028F4D0B54B45
:103B6000B54A9A461B781470012B5FD0B34B197875
:103B7000A14200D1C7E0B24964221C70B14B0A6077
:103B80001B78012B00D1F8E05B46042B00D1D1E07B
:103B9000022B59D0062B00D116E1032B00D18EE168
:103BA000012B00D1AAE15B461B073CD55B46092BE4
:103BB00000D1F5E10A2B00D0C0E1A34B5B78312B9B
:103BC00000D175E2A14B5B78312B2CD1A04B1B7837
:103BD000022B28D19F4B1D78012D00D158E30622DE
:103BE0009D4B1A701FE000229624914D1A70200000
:103BF000FFF7A4FD013401003C22280009F089F8F8
:103C00003C35992CF3D173E7802101229348C901F7
:103C100004F0F6F87CE70022874B1A70854B9A4631
:103C20001B78012B02D0002333705CE7002352463F
:103C300028001370FFF708FF894B187000282CD15B
:103C40002A68884B1A60EEE7814D2B78012BEAD069
:103C5000854C05220021200009F064F85B46601FB6
:103C600003700D2301240027437001338370253333
:103C7000C3700022002300210771009400F020FE91
:103C80008021902001220902C00504F0B9F8774B89
:103C90002C701C70764B1F60C5E72B68644F013891
:103CA00080003B500023962499464B4639003C2225
:103CB00002A8119309F02DF8200002A90134FFF7A2
:103CC000C9FC3C37992CF0D1012342468F3C13703C
:103CD00080210122C901614804F092F8C82007F050
:103CE00099FF802100225D48C901013C04F088F859
:103CF000E4B2C82007F08EFF002CE9D143461C70C7
:103D000053461C709CE74E490868002800D133E7F1
:103D10000023494613704B4A0B701278012A82D156
:103D20005449CB7005330B707A334B7000238A7083
:103D30009B4638E70022504B454C1A609A80237806
:103D4000013B012B00D89DE0802190200022090238
:103D5000C00504F055F8802100224048890104F094
:103D60004FF8802100223D48490104F049F8002322
:103D7000424A1360424A137055E73E48002283705E
:103D80005B46C270053202707A324270092B08D04D
:103D90000A2B06D00B2B04D00C2B02D00D2B00D0FD
:103DA0001EE12833C3700D230371263343710023B2
:103DB00083710133009300220023002100F080FD75
:103DC0004B461B789B46DFE6214D2B78022B00D11A
:103DD00029E7254C05220021200008F0A3FF0D2330
:103DE000601F032700244370013383702533C370A1
:103DF000323B07700471002200930021002300F081
:103E00005FFD02232B70144B1F70194B1C600AE7D7
:103E1000801500205B160020601600209016002000
:103E2000C906002084160020791500208016002085
:103E30008415002040160020821600208A160020DB
:103E40008C1600205C160020501300206013002008
:103E5000BE060020661300207A15002000040048EA
:103E60008816002048160020910B002065160020BF
:103E7000681600208C0B002078160020580C0020BB
:103E8000C40600205B46E048002103700D23437008
:103E9000013383702533C370002303710123009322
:103EA000002300F00DFD2378022B00D195E00222C3
:103EB000D64B1A700023D64A2370136044E7D54CC2
:103EC00005220021200008F02DFF0C23601F037045
:103ED00001334370013383702533C37000230371B2
:103EE0000133002200930021002300F0E9FC0522A9
:103EF000C94B1A70C94BEB321A6094E6C54C0522C7
:103F00000021200008F00EFF5B46601F03700D23A8
:103F10004370013383702533C370002303715B4604
:103F2000002200930021002300F0CAFC0522BA4BB6
:103F30001A70BB4B1A78BB4B1A7074E60B2B53D01C
:103F40000C2B00D197E00D2B00D1D7E00E2B00D029
:103F500069E6B54B5B79312B00D130E1B34B5B792E
:103F6000312B00D05FE6B24B1B78022B00D05AE613
:103F7000B04B1D78012D00D031E6A34C0A22002160
:103F8000200008F0CFFE202323701333002163703C
:103F9000A1700B000A002000009500F091FC1EE6C5
:103FA000A14B1B78312B3DD0A04B1B78312B00D07F
:103FB00039E69F4B1B78022B00D034E69D4B1D78D1
:103FC000012D00D00BE6904C0A220021200008F0C1
:103FD000A9FE1B2323701833D8E7974A137069E7AB
:103FE0000E2B00D1DDE6CFE58F4B9B78312B00D136
:103FF000A2E08E4B9B78312B00D014E68C4B1B78C3
:10400000022B00D00FE68B4B1D78012D00D0E6E58A
:104010007D4C0A220021200008F084FE1D2323701D
:104020001633B3E7824B1D78012DBDD1834A137837
:10403000042B00D9F7E5744C0133137000210A22D8
:10404000200008F06FFE1B230021237018336370DB
:10405000A1700B000A002000009500F031FC784BA5
:104060001B78302B00D0BAE5F0226C4B1A60754BF0
:10407000EB3A1A70D7E56C4BDB78312B7BD06B4B6E
:10408000DB78312B00D0CEE5694B1B78022B00D0BA
:10409000C9E5684B1D78012D00D0A0E55A4C0A22D5
:1040A0000021200008F03EFE1E23237015336DE72B
:1040B0005F4B1D78012D00D084E5604A5378042BB6
:1040C00000D9B0E5504C0133537000210A22200082
:1040D00008F028FE1C230021237017336370A170A1
:1040E0000B000A002000009500F0EAFB544B5B78BF
:1040F000302BB9D00622504B1A70B5E74A4B1B79CA
:10410000312B00D1A0E0494B1B79312B00D08AE53F
:10411000474B1B78022B00D085E5464B1D78012DBF
:1041200000D05CE5384C0A220021200008F0FAFD9E
:104130001F232370143329E73D4B1D78012D00D038
:1041400057E73E4A9378042B00D96CE52E4C013397
:10415000937000210A22200008F0E4FD1D230021B5
:10416000237016336370A1700B000A0020000095C5
:1041700000F0A6FB78E72E4B1D78012D00D07EE7DE
:104180002E4AD378042B00D94DE51F4C0133D37050
:1041900000210A22200008F0C5FD1E230021237003
:1041A00015336370A1700B000A002000009500F029
:1041B00087FB234BDB78302B00D010E554E71C4BFA
:1041C0001D78012D00D0C9E61C4A5379042B00D973
:1041D00029E50D4C0133537100210A22200008F01B
:1041E000A1FD20230021237013336370A1700B0005
:1041F0000A002000009500F063FB114B5B79302B27
:1042000000D0ECE430E7C0468C0B0020651600209F
:1042100068160020910B0020540C0020580C002040
:1042200064160020C40600205013002060130020F4
:10423000BE060020661300207A15002078160020A4
:1042400048130020BD060020164B1D78012D00D01C
:1042500059E7154A1379042B00D9E4E4134C0133D0
:10426000137100210A22200008F05CFD1F230021A9
:10427000237014336370A1700B000A0020000095B6
:1042800000F01EFB0A4B1B79302B00D0A7E4EBE6B5
:10429000064C0A220021200008F044FD1C23237054
:1042A000173373E6BE060020781600208C0B002022
:1042B0004813002070B5264C2368002B08D0013B22
:1042C0002360244C2368002B18D0013B236070BD71
:1042D0000A23214D23602B78002BF2D080211F4828
:1042E000890103F07BFD002828D1802101221B4891
:1042F000890103F085FD01232360E2E70A23184DBD
:1043000023602B78002BE2D080211448490103F070
:1043100065FD002808D1802101221048490103F0E1
:104320006FFD01232360D2E7802100220B48490161
:1043300003F066FD2B78013B2B70C8E7802100223B
:104340000648890103F05CFD2B78013B2B70B8E730
:10435000681600207C150020651600200004004827
:104360007A15002010B50C4A1378002B0ED10B4A99
:1043700013600B4A13700B4B1B78012B05D0802167
:1043800000220948C90103F03BFD10BD012BF2D109
:1043900001331370EFE7C0465A1600207415002051
:1043A00089160020C906002000040048F8B5A84C72
:1043B0002378002B3ED1A74AA74FA84D13703E7813
:1043C000A74A2B606B602B721370002E58D0A54A41
:1043D000A5491068426A0A601100653994294BD8D2
:1043E0000136F1B2A14E397037684362BC4662446F
:1043F0003260172938D99D4B01391868FBF7A0FEA8
:10440000FDF7FCFF00229A4BFDF776F9FCF786F8E2
:10441000984B0600186001230A220021280023700F
:1044200008F080FC8F4B1A6800235362D662924AD0
:10443000137019E0012B18D0022B56D08021902048
:104440004900C005032B2BD003F0C8FC00280BD07B
:1044500000232370894B1B78012B05D0802100227B
:104460008748C90103F0CCFCF8BD00237F4A2370C4
:104470001360794A1370F7E77C4A3B701360F3E7E7
:10448000802190204900C00503F0A8FC397800285D
:10449000AFD0744B01311B68C9B239705E62A8E7B6
:1044A00003F09CFC00284BD1744B1B78012B62D18C
:1044B0006C4B1C68606AFCF79FF9724B1968FCF73B
:1044C00019F8431E9841012358406F4B614A1870F8
:1044D0000023624D636214786C492A5D0B785200A8
:1044E0001043023328550B70BEE78021902049000D
:1044F000C00503F073FC00283BD001225E4B1A700C
:104500000023634A136003222270524A1370544AF4
:1045100013705E4A1370534A12685362554B186801
:10452000D062FDF76BFF0022514BFCF7E3FC594BC7
:104530000022FDF7E1F8FDF7CFFF524B186093E73B
:104540000022484B4D4E1B685A623378012B19D11B
:10455000434D2B78062B29D900213E4A2970137828
:104560000133DBB21370092B2CD00022474B1A7099
:104570007AE7237862E7802100224148C90103F0ED
:104580003FFC95E780213E480132C90103F038FC29
:10459000334D2B78062B09D93378012BDCD08021C1
:1045A00000223748C90103F02BFCD5E7294A013323
:1045B0001278DBB22B70092AD7D1022BD5D1053363
:1045C0002B70D2E7344B254D18782A79904209D0C8
:1045D0006A681A600023314A1370314A136000235D
:1045E0002370C2E758786A799042F1D19878AA7915
:1045F0009042EDD1D878EA799042E9D1284B27480A
:104600001A68072A00D90170002201781A6001296E
:104610001BD16A68234E0F233260120E17009F438E
:104620001340214AF77013702A7A204DD2092A705C
:104630000A259A081D400A402A4304259B002B4066
:1046400013431B4A13701B4B197001310170C6E7ED
:104650005A1600204C160020891600205016002003
:1046600078150020D8110020701600207415002045
:10467000000023406C16002038160020C9060020D8
:104680000004004874160020811600207E160020C9
:104690003C1600200000F83F44160020831600203E
:1046A00084160020601600207F1600205C16002073
:1046B0007915002080150020F8B5274BDE469B4673
:1046C000264B57469A46264B4E464546994600236A
:1046D000E0B598460A27234E0A225946224B234822
:1046E00007F0EAF8002834D14246534632701A6087
:1046F000802200214846920008F014FB1424642014
:1047000007F088FA3578012D11D0013C002CF6D144
:10471000FA20013F800007F07DFA002FDCD1002550
:104720002800F0BCBB46B246A946A046F8BD4346A9
:1047300048460F49337009F047F9002805D148462B
:104740000C4909F041F90028E2D03C220A4B1A70CA
:10475000E6E7FEF72FFDC7E7C4150108EC1B0020B4
:10476000E8190020F01B0020FFFF00006812002065
:10477000DC150108D0150108C4230020F0B5CE4691
:10478000474680B5454B83B0040018000F0099469A
:1047900004F0C2FD424E09223000424B424907F06C
:1047A0008BF8002800D06FE02000FBF7ADFC210063
:1047B00082B23C4B300007F07FF8002861D1032221
:1047C0003000384B394907F077F8002856D10023DC
:1047D000374A384D136080222B70374B0021180068
:1047E00092009846142408F09DFA642007F012FA0B
:1047F0002B78012B08D0013C002CF6D1002003B00F
:10480000C0BCB946B046F0BD00233E2140462B70E7
:1048100009F09EF80028F1D03800FBF775FC39004C
:1048200082B2204B300007F047F8002832D11A231B
:1048300001A90B80012230001A4B07F03DF8002837
:1048400025D1484604F068FD642007F0E3F92B7891
:104850006424012B08D0013C002CCFD0642007F049
:10486000D9F92B78012BF6D10023404613492B7040
:1048700009F0AAF8431E9841C0B2C0E7FEF79AFCBF
:10488000A5E7FEF797FC9AE7FEF794FC8CE7FEF7A6
:1048900091FCD6E7FEF78EFCC9E7C046A4110020C4
:1048A00068120020FFFF0000E81501082819010820
:1048B000EC1B0020F01B0020E8190020F415010873
:1048C000F0B557464546DE464E46E0B593B09946AC
:1048D0001CAB07001B7800788A4690469B46002553
:1048E0005C2800D889E053460026012B00D18FE0D8
:1048F00038786C2800D196E0FEF720FF01AC01006B
:104900000822200009F04CF82378303BDBB2012B61
:1049100000D90EE16278303AD2B2012A00D908E11A
:104920005B001343A278DBB2303AD2B2012A00D93D
:10493000FFE05B001343E278DBB2303AD2B2012AE7
:1049400000D9F6E05B0013432279DBB2303AD2B2F1
:10495000012A00D9EDE05B0013436279DBB2303A03
:10496000D2B2012A00D9E4E0A1795B0030391343C7
:10497000C9B2DBB2012900D9DBE05B000B43E1796E
:10498000DBB23039CAB2012A00D9D2E05900114352
:10499000CBB29A465B46002B00D0D0E0002E00D070
:1049A0008BE0794B32001D789B460135EDB21D70CE
:1049B0001823AB42724153421D40744B06E001354F
:1049C000EDB20136F6B2192E00D180E02C01641B45
:1049D0001A5D1C19002A00D189E02100E27A0B310E
:1049E000012A00D192E02000227B0C30062A00D957
:1049F00092E0182DE3D10025E3E7FEF79FFE037850
:104A00001E26002B00D06EE75346012B00D06FE727
:104A10004346002B00D0ABE013B0F0BCBB46B2461F
:104A2000A946A046F0BD5D38FEF788FE01AC010046
:104A30000822200008F0B4FF2378303BDBB2012BC2
:104A400074D86278303AD2B2012A6FD85B0013432F
:104A5000A278DBB2303AD2B2012A67D85B001343A6
:104A6000E278DBB2303AD2B2012A5FD85B0013435E
:104A70002279DBB2303AD2B2012A57D85B00134315
:104A80006279DBB2303AD2B2012A4FD8A1795B0009
:104A900030391343C9B2DBB2012947D85B000B435D
:104AA000E179DBB23039CAB2012A3FD8590011434B
:104AB000CBB29A46002E00D173E7182E02D8324BA3
:104AC0009B467AE71E2EA7D02F4B9B462F4B5A466C
:104AD0001578182D26D82A002801401B1818140113
:104AE000A41A1C19002339002373E37203E0390070
:104AF00020002273E27208F039FF534663734B467D
:104B0000A3734346A3725B461D7085E70023200014
:104B10000B7023733900EEE7002303700B70200045
:104B20003900E8E7180000220025D8E7FF239A465D
:104B300034E7FF239A465B46002B00D12EE7404620
:104B4000FEF7FCFD0100200008F010FF14242000F7
:104B5000FEF7F4FD6B46D91D08F036FF00280FD193
:104B600001341A2CF3D1524680231A43924615E79A
:104B70004046FEF7E3FD0378002B00D14CE70DE73C
:104B8000002398460AE7C046AA170020AC17002069
:104B9000F8B5344D0B222800334B344906F08CFE17
:104BA00000285BD12920FEF7C9FD0400FBF7ACFA11
:104BB000210082B22C4B280006F07EFE00284AD14C
:104BC00006222800284B2A4906F076FE00283FD10D
:104BD000FA20400007F01EF80023264A264E1360F4
:104BE0008022264D0021300092002B70C82408F04E
:104BF00099F8642007F00EF82B78012B03D0013CC4
:104C0000002CF6D1F8BD002730001D492F7008F0A8
:104C1000DBFE041EF6D0C82006F0FCFF194D502222
:104C20000021280008F07EF82379342BEAD0164EB4
:104C30002000310009F018FD3100002009F014FDBA
:104C40003C220100280008F0ABFE104B1F70D9E792
:104C5000FEF7B0FABCE7FEF7ADFAB1E7FEF7AAFA45
:104C6000A0E7C04668120020FFFF0000FC15010805
:104C700008160108EC1B0020E8190020F01B00209A
:104C80001016010894160020F0150108E219002002
:104C900010B5044B1B78002B02D1FFF70DFD10BDA2
:104CA0000120FCE7C4230020F8B5DE4657464E46F7
:104CB00045462E48E0B504F02FFB2D4B03279B46BD
:104CC0002C4B2D4E9A462D4B994600239846082290
:104CD00059462B4B2B4806F0EFFD00283CD14246AD
:104CE000534632701A60802200214846920008F034
:104CF00019F80A24642006F08DFF3578012D11D0B3
:104D0000013C002CF6D19620013F400006F082FFC6
:104D1000002FDCD100252800F0BCBB46B246A946D6
:104D2000A046F8BD434648461749337008F04CFE8C
:104D3000041EE8D0FA20400006F06CFFA01D1349C5
:104D400009F092FC0400FBF7DFF9052807D9424679
:104D50000F4B00251A70DEE7FEF72CFABFE72000A4
:104D600007F085FE0A4B1870D5E7C046A411002055
:104D700028160108EC1B0020F01B0020E819002079
:104D8000FFFF0000681200203816010834160108E1
:104D900088170020F0B54E464546DE4657460023AC
:104DA000E0B50B70060000780D008FB000285DD0D4
:104DB000C94B00249A46C94B9946C94B98465C2872
:104DC0003FD964285AD06E2867D0742800D1CBE030
:104DD000652800D1F3E0662800D120E1702800D1D9
:104DE0009EE1712800D116E2722800D1DCE267282A
:104DF00000D12CE26A2800D18AE26B2800D194E22B
:104E00006C2800D155E26D2800D1BFE37F2801D185
:104E100000F045FC335D7E2B01D100F0F3FB7D2BD0
:104E20001CD12800FBF770F902225146281807F020
:104E300070FF4B461868FDF707FB0B000200414668
:104E40002FE2FEF77BFC0700002C00D1FFE02B785F
:104E5000002B19D13900280008F06DFD0134E4B2AF
:104E60000136082C02D830780028A8D128000FB0CD
:104E7000F0BCBB46B246A946A046F0BD0A222800B7
:104E8000984907F046FFE9E72800FBF73DF90222C1
:104E90009149281807F03DFFDCE7934908222800D4
:104EA00007F037FF1420FEF749FC03780100203B90
:104EB0005E2B00D8A3E12800FBF726F98B490A22D4
:104EC000281807F026FF1520FEF738FC03780100AC
:104ED000203B5E2B00D88EE12800FBF715F98449B2
:104EE0000A22281807F015FF1620FEF727FC037882
:104EF0000100203B5E2B00D879E12800FBF704F984
:104F00007C490A22281807F004FF1720FEF716FC38
:104F100003780100203B5E2B00D878E12800FBF7E6
:104F2000F3F875490A22281807F0F3FE1820FEF757
:104F300005FC03780100203B5E2B00D863E12800CC
:104F4000FBF7E2F80A226D49281807F0E2FE192063
:104F5000FEF7F4FB03780100203B5E2B00D97DE7D0
:104F6000280008F0E8FC79E711226549280007F0DD
:104F7000D0FE2120FEF7E2FB07002800FBF7C4F873
:104F80003900281808F0CEFC14225E4907F0C1FE53
:104F90002220FEF7D3FB07002800FBF7B5F8390005
:104FA000281808F0BFFC1922574907F0B2FE232049
:104FB000FEF7C4FB0100280008F0BDFC4EE7534992
:104FC0001222280007F0A5FE2420FEF7B7FB037885
:104FD0000100203B5E2B1ED92800FBF795F811221B
:104FE0004B49281807F095FE2520FEF7A7FB070080
:104FF0002800FBF789F83900281808F093FC0E22E6
:10500000444907F086FE1A20FEF798FB01002800AD
:1050100008F091FC22E7280008F08DFCDCE73E490F
:105020000B22280007F075FE1220FEF787FB03789D
:105030000100203B5E2B00D873E12800FBF764F8E9
:105040000C223649281807F064FE132080E706ABCF
:105050009B4601000822180008F0A2FC5B460122D2
:1050600021001B78303BDBB29A4261415A465278AC
:10507000CBB2303A012A01D80133DBB25A469278DA
:10508000303A012A01D80133DBB25A46D278303A9D
:10509000012A01D80133DBB25A461279303A012A8B
:1050A00001D80133DBB25A465279303A012A01D88D
:1050B0000133DBB25A469279303A012A00D9C6E66A
:1050C0005A46D279303A012A00D9C0E6062B00D0E0
:1050D000BDE60837BBE6C046E01701085C170020B4
:1050E000E4170108401601084C160108541601087F
:1050F000601601086C16010878160108841601086C
:10510000AC16010890160108A4160108C016010883
:10511000D4160108E8160108F8160108041701085A
:105120000A228749280007F0F4FD2C20FEF706FB31
:1051300007002800FAF7E8FF3900281808F0F2FB0A
:105140000C22804907F0E5FD2D20FEF7F7FA070055
:105150002800FAF7D9FF3900281808F0E3FB0C22E1
:10516000794907F0D6FD2E20FEF7E8FA070028005F
:10517000FAF7CAFF3900281808F0D4FB0D2273494A
:1051800007F0C7FD3120FEF7D9FA07002800FAF72B
:10519000BBFF3900281808F0C5FB0D226C4907F049
:1051A000B8FD3220FEF7CAFA07002800FAF7ACFF74
:1051B0003900281808F0B6FB1122664907F0A9FD4E
:1051C0002F20FEF7BBFA07002800FAF79DFF3900F1
:1051D000281808F0A7FB11225F4907F09AFD30203C
:1051E000FEF7ACFA0100280008F0A5FB36E628001F
:1051F00008F0A1FB81E6280008F09DFB6CE6280082
:1052000008F099FB57E6280008F095FB97E6280080
:1052100008F091FB82E60D222800504907F079FD45
:105220004F4B1B78002B60D1280009224D490C30D0
:1052300007F06FFD4C4B28001B78002B60D0FAF76D
:1052400063FF15224949281807F063FD06E6172277
:105250004749280007F05DFD1120FEF76FFA0700AF
:105260002800FAF751FF3900281808F05BFB0F22DD
:10527000404907F04EFD1020FEF760FA07002800B5
:10528000FAF742FF3900281808F04CFB0E223A4981
:1052900007F03FFD394B1868FDF7D6F802000B0008
:1052A000374906A808F0D2FA280006A908F043FBFF
:1052B000D4E5344B9B461B78002B00D195E1324F4F
:1052C0003A003249280008F0C1FA2800FAF71CFF1A
:1052D00002222F49281807F01CFD3320FEF72EFA72
:1052E0000100280008F027FBB8E52800082229491A
:1052F0000C3007F00EFD1C4B28001B78002B9ED1B4
:10530000FAF702FF17222449281807F002FDA5E545
:10531000FFF7CAFC214B28001A78214908F096FAB9
:105320009CE5280008F007FB87E610221D492800AD
:1053300007F0EFFC2800022215490F30CBE7C046EA
:10534000101701081C170108281701083417010855
:105350004417010854170108681701087C17010851
:10536000CC06002094170108CB060020A0170108E6
:10537000EC17010804180108D41701085C17002075
:10538000E4170108BC060020941600203C18010810
:10539000E01701088C170108B817010888170020CA
:1053A000141801082C1801086338FEF7C7F906AB7A
:1053B0009B46010008220400180008F0F1FA5B4641
:1053C00001211A780023303AD2B291425B415A4609
:1053D000012051780022303988425241DBB29B18BB
:1053E0005A469278303A012A01D80133DBB25A4644
:1053F000D278303A012A01D80133DBB25A46127909
:10540000303A012A01D80133DBB25A465279303A98
:10541000012A01D80133DBB25A469279303A012A87
:1054200000D8F8E02B78002B00D02AE121002800DA
:1054300008F09CFAAE4B1B78012B00D150E1022BF7
:1054400000D127E10420FEF779F9040008222100A9
:10545000584608F0A5FA5B4601211A780023303A35
:10546000D2B291425B415A46012051780022303934
:1054700088425241DBB29B185A469278303A012A50
:1054800001D80133DBB25A46D278303A012A01D82A
:105490000133DBB25A461279303A012A01D801337E
:1054A000DBB25A465279303A012A01D80133DBB2D5
:1054B0005A469279303A012A00D8C0E02B78002B66
:1054C00000D0CCE02100280008F035FA894B1B7889
:1054D000012B00D1BEE00720FEF730F904000822BE
:1054E0002100584608F05CFA5B4601211A78002337
:1054F000303AD2B291425B415A46012051780022A3
:10550000303988425241DBB29B185A469278303A81
:10551000012A01D80133DBB25A46D278303A012A47
:1055200001D80133DBB25A461279303A012A01D848
:105530000133DBB25A465279303A012A01D801339D
:10554000DBB25A469279303A012A6FD92B78002B78
:1055500000D08DE02800FAF7D7FD2100281808F0C8
:10556000E1F90E22644907F0D4FB644B012418686A
:10557000FCF76AFF02000B005846614908F066F923
:105580005946280008F0D7F901366CE45D4B09AFA5
:105590009B4639000022180004F09EFE3B785A4AD0
:1055A000584613707B78594A1370BB78584A05AF38
:1055B00039001370002205F013F87B78554A5648DD
:1055C0001370B978554A1170FA7802605048007823
:1055D00003904E48007802904B480078009101906B
:1055E0004F49280008F032F977E6FFF7D1FA4D4F1E
:1055F0003800FAF789FD142800D861E678235A4666
:1056000013705DE62800FAF77FFD0222464928184C
:1056100007F07FFB22E45A46D279303A012A00D9BA
:1056200000E7062B00D0FDE60834FBE65A46D279A7
:10563000303A012A8AD8062B88D1083486E75A46A0
:10564000D279303A012A00D938E7062B00D035E765
:10565000083433E70620FEF771F804003FE728001E
:10566000FAF752FD03223149281807F052FB29E7C7
:105670002800FAF749FD03222C49281807F049FBB6
:1056800068E72800FAF740FD03222849281807F0A8
:1056900040FBCBE60320FEF751F80400D6E62800D5
:1056A000FAF732FD8346022221492818777807F05D
:1056B00030FB5B4601330236DBB2002F15D03200DF
:1056C000F818C0B211780132E9540133DBB29842C4
:1056D000F8D13C19F619E4B200232B54FFF7BEFBB6
:1056E0000220FEF72BF80400B0E61800F4E7C046ED
:1056F000BE06002000000020D41701085C1700201F
:10570000E4170108B8110020B4110020ED120020A8
:10571000F5120020EE120020F81200205F0C00208D
:105720004C1801089416002078180108D0170108B9
:10573000E0170108F0B5C64600B5254D2B78182BAB
:1057400001D900232B7019200027224C06E00138D4
:105750000133C0B20127DBB2002813D01901CA1AE5
:10576000A65C002E06D0A218167B052E02D8D27A8F
:10577000002A0BD0182BEAD10138C0B20023012730
:105780000028EBD12B7080BCB846F0BD002F00D0B4
:105790002B70CB1A9846A04442460F4F731C1373CC
:1057A0000021A022380007F0BDFA39004046FFF77B
:1057B000F1FA3800FAF7A8FC03000120022BE2D826
:1057C0002A78002013019B1AE41806232373DAE7D2
:1057D000AB170020AC17002024190020F0B5DE46DE
:1057E00057464E4645469020E0B5012283B0102131
:1057F000C00502F005FBFA20400006F00BFA9020ED
:1058000001220121C00502F0FBFAFA20800006F017
:1058100001FA902000220121C00502F0F1FADB48D4
:1058200006F0F8F9DA4BDB4C9B4600235A4613602E
:10583000D94B04229A4621005046D84B06F03CF83A
:10584000002800D0A7E2FA20800006F0E3F9042245
:1058500021005046D14B06F02FF8002800D097E2E7
:10586000FA20800006F0D6F9CD4803F055FD5B46DE
:105870001B68012B00D891E2C94803F04DFDC948CF
:1058800006F0C8F9C64803F047FD0A230193C64B4A
:10589000C64C984600239946C54F4B225046BF4BF5
:1058A000C44906F009F8002800D05DE2052006F0A2
:1058B000B1F94A465B4622701A6080220021380006
:1058C000920007F02FFA0A250A26642006F0A2F9B2
:1058D0002378012B00D1B0E1013E002EF5D1013D2E
:1058E000EDB2002DF0D14146380008F06DF80028E7
:1058F00004D1019B013B0193002BCED1AE4B1B7811
:10590000002B01D1FEF7D8FE002303269946092279
:105910005046A24BA94905F0CFFF002800D031E244
:105920004A465B4622701A608022002138009200AD
:1059300007F0F8F91425642006F06CF92378012BA0
:1059400000D114E2013D002DF5D19620013E40002A
:1059500006F060F9002EDAD10021994808F006F827
:10596000FFF7A2F98E4803F0D7FC8D4803F0D4FC72
:10597000FA20400006F04EF90C225046874B914920
:1059800005F09AFF002800D0FFE100235A4613607B
:105990008022002138009200237007F0C3F9002311
:1059A000052699460A25642006F034F92378012B50
:1059B00000D1C7E1013D002DF5D1013EF6B2002E28
:1059C000F0D1FA20400006F025F90C225046734B26
:1059D0007D4905F071FF002800D0C2E100235A463E
:1059E00013608022002138009200237007F09AF99A
:1059F00000230A2699460A25642006F00BF923782D
:105A0000012B00D135E1013D002DF5D1013EF6B26B
:105A1000002EF0D1FA20400006F0FCF80D2250468E
:105A20005E4B6A4905F048FF002800D030E10023B2
:105A30005A4613608022002138009200237007F03C
:105A400071F900230A2699460A25642006F0E2F837
:105A50002378012B00D1FAE0013D002DF5D1013E64
:105A6000F6B2002EF0D14E4803F056FCFA2040006A
:105A700006F0D0F80E225046484B554905F01CFF61
:105A8000002800D0F2E000235A4613608022002153
:105A900038009200237007F045F900230526994647
:105AA0000A25642006F0B6F82378012B00D137E1EF
:105AB000013D002DF5D1013EF6B2002EF0D1FA20C5
:105AC000400006F0A7F81A225046344B414905F031
:105AD000F3FE002800D032E100235A4613608022F2
